{
	"contracts/Counter.sol": {
		"Counter": {
			"abi": [
				{
					"inputs": [
						{
							"internalType": "uint256",
							"name": "_initialValue",
							"type": "uint256"
						}
					],
					"stateMutability": "nonpayable",
					"type": "constructor"
				},
				{
					"anonymous": false,
					"inputs": [
						{
							"indexed": true,
							"internalType": "address",
							"name": "changer",
							"type": "address"
						},
						{
							"indexed": false,
							"internalType": "uint256",
							"name": "newValue",
							"type": "uint256"
						},
						{
							"indexed": false,
							"internalType": "string",
							"name": "action",
							"type": "string"
						}
					],
					"name": "NumberChanged",
					"type": "event"
				},
				{
					"inputs": [],
					"name": "decreaseNumb",
					"outputs": [
						{
							"internalType": "uint256",
							"name": "",
							"type": "uint256"
						}
					],
					"stateMutability": "nonpayable",
					"type": "function"
				},
				{
					"inputs": [],
					"name": "getStoredNumber",
					"outputs": [
						{
							"internalType": "uint256",
							"name": "",
							"type": "uint256"
						}
					],
					"stateMutability": "view",
					"type": "function"
				},
				{
					"inputs": [],
					"name": "increaseNumb",
					"outputs": [
						{
							"internalType": "uint256",
							"name": "",
							"type": "uint256"
						}
					],
					"stateMutability": "nonpayable",
					"type": "function"
				},
				{
					"inputs": [],
					"name": "owner",
					"outputs": [
						{
							"internalType": "address",
							"name": "",
							"type": "address"
						}
					],
					"stateMutability": "view",
					"type": "function"
				}
			],
			"devdoc": {
				"kind": "dev",
				"methods": {},
				"version": 1
			},
			"evm": {
				"assembly": "    /* \"contracts/Counter.sol\":58:1037  contract Counter {... */\n  mstore(0x40, 0x80)\n    /* \"contracts/Counter.sol\":141:248  constructor(uint256 _initialValue) {... */\n  callvalue\n  dup1\n  iszero\n  tag_1\n  jumpi\n  0x00\n  dup1\n  revert\ntag_1:\n  pop\n  mload(0x40)\n  sub(codesize, bytecodeSize)\n  dup1\n  bytecodeSize\n  dup4\n  codecopy\n  dup2\n  dup2\n  add\n  0x40\n  mstore\n  dup2\n  add\n  swap1\n  tag_2\n  swap2\n  swap1\n  tag_3\n  jump\t// in\ntag_2:\n    /* \"contracts/Counter.sol\":194:204  msg.sender */\n  caller\n    /* \"contracts/Counter.sol\":186:191  owner */\n  0x01\n  0x00\n    /* \"contracts/Counter.sol\":186:204  owner = msg.sender */\n  0x0100\n  exp\n  dup2\n  sload\n  dup2\n  0xffffffffffffffffffffffffffffffffffffffff\n  mul\n  not\n  and\n  swap1\n  dup4\n  0xffffffffffffffffffffffffffffffffffffffff\n  and\n  mul\n  or\n  swap1\n  sstore\n  pop\n    /* \"contracts/Counter.sol\":228:241  _initialValue */\n  dup1\n    /* \"contracts/Counter.sol\":214:225  counterNumb */\n  0x00\n    /* \"contracts/Counter.sol\":214:241  counterNumb = _initialValue */\n  dup2\n  swap1\n  sstore\n  pop\n    /* \"contracts/Counter.sol\":141:248  constructor(uint256 _initialValue) {... */\n  pop\n    /* \"contracts/Counter.sol\":58:1037  contract Counter {... */\n  jump(tag_6)\n    /* \"#utility.yul\":88:205   */\ntag_8:\n    /* \"#utility.yul\":197:198   */\n  0x00\n    /* \"#utility.yul\":194:195   */\n  dup1\n    /* \"#utility.yul\":187:199   */\n  revert\n    /* \"#utility.yul\":334:411   */\ntag_10:\n    /* \"#utility.yul\":371:378   */\n  0x00\n    /* \"#utility.yul\":400:405   */\n  dup2\n    /* \"#utility.yul\":389:405   */\n  swap1\n  pop\n    /* \"#utility.yul\":334:411   */\n  swap2\n  swap1\n  pop\n  jump\t// out\n    /* \"#utility.yul\":417:539   */\ntag_11:\n    /* \"#utility.yul\":490:514   */\n  tag_19\n    /* \"#utility.yul\":508:513   */\n  dup2\n    /* \"#utility.yul\":490:514   */\n  tag_10\n  jump\t// in\ntag_19:\n    /* \"#utility.yul\":483:488   */\n  dup2\n    /* \"#utility.yul\":480:515   */\n  eq\n    /* \"#utility.yul\":470:533   */\n  tag_20\n  jumpi\n    /* \"#utility.yul\":529:530   */\n  0x00\n    /* \"#utility.yul\":526:527   */\n  dup1\n    /* \"#utility.yul\":519:531   */\n  revert\n    /* \"#utility.yul\":470:533   */\ntag_20:\n    /* \"#utility.yul\":417:539   */\n  pop\n  jump\t// out\n    /* \"#utility.yul\":545:688   */\ntag_12:\n    /* \"#utility.yul\":602:607   */\n  0x00\n    /* \"#utility.yul\":633:639   */\n  dup2\n    /* \"#utility.yul\":627:640   */\n  mload\n    /* \"#utility.yul\":618:640   */\n  swap1\n  pop\n    /* \"#utility.yul\":649:682   */\n  tag_22\n    /* \"#utility.yul\":676:681   */\n  dup2\n    /* \"#utility.yul\":649:682   */\n  tag_11\n  jump\t// in\ntag_22:\n    /* \"#utility.yul\":545:688   */\n  swap3\n  swap2\n  pop\n  pop\n  jump\t// out\n    /* \"#utility.yul\":694:1045   */\ntag_3:\n    /* \"#utility.yul\":764:770   */\n  0x00\n    /* \"#utility.yul\":813:815   */\n  0x20\n    /* \"#utility.yul\":801:810   */\n  dup3\n    /* \"#utility.yul\":792:799   */\n  dup5\n    /* \"#utility.yul\":788:811   */\n  sub\n    /* \"#utility.yul\":784:816   */\n  slt\n    /* \"#utility.yul\":781:900   */\n  iszero\n  tag_24\n  jumpi\n    /* \"#utility.yul\":819:898   */\n  tag_25\n  tag_8\n  jump\t// in\ntag_25:\n    /* \"#utility.yul\":781:900   */\ntag_24:\n    /* \"#utility.yul\":939:940   */\n  0x00\n    /* \"#utility.yul\":964:1028   */\n  tag_26\n    /* \"#utility.yul\":1020:1027   */\n  dup5\n    /* \"#utility.yul\":1011:1017   */\n  dup3\n    /* \"#utility.yul\":1000:1009   */\n  dup6\n    /* \"#utility.yul\":996:1018   */\n  add\n    /* \"#utility.yul\":964:1028   */\n  tag_12\n  jump\t// in\ntag_26:\n    /* \"#utility.yul\":954:1028   */\n  swap2\n  pop\n    /* \"#utility.yul\":910:1038   */\n  pop\n    /* \"#utility.yul\":694:1045   */\n  swap3\n  swap2\n  pop\n  pop\n  jump\t// out\n    /* \"contracts/Counter.sol\":58:1037  contract Counter {... */\ntag_6:\n  dataSize(sub_0)\n  dup1\n  dataOffset(sub_0)\n  0x00\n  codecopy\n  0x00\n  return\nstop\n\nsub_0: assembly {\n        /* \"contracts/Counter.sol\":58:1037  contract Counter {... */\n      mstore(0x40, 0x80)\n      callvalue\n      dup1\n      iszero\n      tag_1\n      jumpi\n      0x00\n      dup1\n      revert\n    tag_1:\n      pop\n      jumpi(tag_2, lt(calldatasize, 0x04))\n      shr(0xe0, calldataload(0x00))\n      dup1\n      0x8da5cb5b\n      eq\n      tag_3\n      jumpi\n      dup1\n      0xcc00d22d\n      eq\n      tag_4\n      jumpi\n      dup1\n      0xd5b6c678\n      eq\n      tag_5\n      jumpi\n      dup1\n      0xfc412ba1\n      eq\n      tag_6\n      jumpi\n    tag_2:\n      0x00\n      dup1\n      revert\n        /* \"contracts/Counter.sol\":114:134  address public owner */\n    tag_3:\n      tag_7\n      tag_8\n      jump\t// in\n    tag_7:\n      mload(0x40)\n      tag_9\n      swap2\n      swap1\n      tag_10\n      jump\t// in\n    tag_9:\n      mload(0x40)\n      dup1\n      swap2\n      sub\n      swap1\n      return\n        /* \"contracts/Counter.sol\":455:638  function increaseNumb() public onlyOwner returns (uint256) {... */\n    tag_4:\n      tag_11\n      tag_12\n      jump\t// in\n    tag_11:\n      mload(0x40)\n      tag_13\n      swap2\n      swap1\n      tag_14\n      jump\t// in\n    tag_13:\n      mload(0x40)\n      dup1\n      swap2\n      sub\n      swap1\n      return\n        /* \"contracts/Counter.sol\":644:827  function decreaseNumb() public onlyOwner returns (uint256) {... */\n    tag_5:\n      tag_15\n      tag_16\n      jump\t// in\n    tag_15:\n      mload(0x40)\n      tag_17\n      swap2\n      swap1\n      tag_14\n      jump\t// in\n    tag_17:\n      mload(0x40)\n      dup1\n      swap2\n      sub\n      swap1\n      return\n        /* \"contracts/Counter.sol\":833:925  function getStoredNumber() public view returns (uint256) {... */\n    tag_6:\n      tag_18\n      tag_19\n      jump\t// in\n    tag_18:\n      mload(0x40)\n      tag_20\n      swap2\n      swap1\n      tag_14\n      jump\t// in\n    tag_20:\n      mload(0x40)\n      dup1\n      swap2\n      sub\n      swap1\n      return\n        /* \"contracts/Counter.sol\":114:134  address public owner */\n    tag_8:\n      0x01\n      0x00\n      swap1\n      sload\n      swap1\n      0x0100\n      exp\n      swap1\n      div\n      0xffffffffffffffffffffffffffffffffffffffff\n      and\n      dup2\n      jump\t// out\n        /* \"contracts/Counter.sol\":455:638  function increaseNumb() public onlyOwner returns (uint256) {... */\n    tag_12:\n        /* \"contracts/Counter.sol\":505:512  uint256 */\n      0x00\n        /* \"contracts/Counter.sol\":391:396  owner */\n      0x01\n      0x00\n      swap1\n      sload\n      swap1\n      0x0100\n      exp\n      swap1\n      div\n      0xffffffffffffffffffffffffffffffffffffffff\n      and\n        /* \"contracts/Counter.sol\":377:396  msg.sender == owner */\n      0xffffffffffffffffffffffffffffffffffffffff\n      and\n        /* \"contracts/Counter.sol\":377:387  msg.sender */\n      caller\n        /* \"contracts/Counter.sol\":377:396  msg.sender == owner */\n      0xffffffffffffffffffffffffffffffffffffffff\n      and\n      eq\n        /* \"contracts/Counter.sol\":369:430  require(msg.sender == owner, \"Only owner can modify counter\") */\n      tag_22\n      jumpi\n      mload(0x40)\n      0x08c379a000000000000000000000000000000000000000000000000000000000\n      dup2\n      mstore\n      0x04\n      add\n      tag_23\n      swap1\n      tag_24\n      jump\t// in\n    tag_23:\n      mload(0x40)\n      dup1\n      swap2\n      sub\n      swap1\n      revert\n    tag_22:\n        /* \"contracts/Counter.sol\":524:535  counterNumb */\n      0x00\n      dup1\n        /* \"contracts/Counter.sol\":524:537  counterNumb++ */\n      dup2\n      sload\n      dup1\n      swap3\n      swap2\n      swap1\n      tag_26\n      swap1\n      tag_27\n      jump\t// in\n    tag_26:\n      swap2\n      swap1\n      pop\n      sstore\n      pop\n        /* \"contracts/Counter.sol\":566:576  msg.sender */\n      caller\n        /* \"contracts/Counter.sol\":552:603  NumberChanged(msg.sender, counterNumb, \"increased\") */\n      0xffffffffffffffffffffffffffffffffffffffff\n      and\n      0x46d0638a5bf9bcb40d1cf6f1dab4d3bac461b6dbe4bd66b50290bea084a1abfc\n        /* \"contracts/Counter.sol\":578:589  counterNumb */\n      sload(0x00)\n        /* \"contracts/Counter.sol\":552:603  NumberChanged(msg.sender, counterNumb, \"increased\") */\n      mload(0x40)\n      tag_28\n      swap2\n      swap1\n      tag_29\n      jump\t// in\n    tag_28:\n      mload(0x40)\n      dup1\n      swap2\n      sub\n      swap1\n      log2\n        /* \"contracts/Counter.sol\":620:631  counterNumb */\n      sload(0x00)\n        /* \"contracts/Counter.sol\":613:631  return counterNumb */\n      swap1\n      pop\n        /* \"contracts/Counter.sol\":455:638  function increaseNumb() public onlyOwner returns (uint256) {... */\n      swap1\n      jump\t// out\n        /* \"contracts/Counter.sol\":644:827  function decreaseNumb() public onlyOwner returns (uint256) {... */\n    tag_16:\n        /* \"contracts/Counter.sol\":694:701  uint256 */\n      0x00\n        /* \"contracts/Counter.sol\":391:396  owner */\n      0x01\n      0x00\n      swap1\n      sload\n      swap1\n      0x0100\n      exp\n      swap1\n      div\n      0xffffffffffffffffffffffffffffffffffffffff\n      and\n        /* \"contracts/Counter.sol\":377:396  msg.sender == owner */\n      0xffffffffffffffffffffffffffffffffffffffff\n      and\n        /* \"contracts/Counter.sol\":377:387  msg.sender */\n      caller\n        /* \"contracts/Counter.sol\":377:396  msg.sender == owner */\n      0xffffffffffffffffffffffffffffffffffffffff\n      and\n      eq\n        /* \"contracts/Counter.sol\":369:430  require(msg.sender == owner, \"Only owner can modify counter\") */\n      tag_31\n      jumpi\n      mload(0x40)\n      0x08c379a000000000000000000000000000000000000000000000000000000000\n      dup2\n      mstore\n      0x04\n      add\n      tag_32\n      swap1\n      tag_24\n      jump\t// in\n    tag_32:\n      mload(0x40)\n      dup1\n      swap2\n      sub\n      swap1\n      revert\n    tag_31:\n        /* \"contracts/Counter.sol\":713:724  counterNumb */\n      0x00\n      dup1\n        /* \"contracts/Counter.sol\":713:726  counterNumb-- */\n      dup2\n      sload\n      dup1\n      swap3\n      swap2\n      swap1\n      tag_34\n      swap1\n      tag_35\n      jump\t// in\n    tag_34:\n      swap2\n      swap1\n      pop\n      sstore\n      pop\n        /* \"contracts/Counter.sol\":755:765  msg.sender */\n      caller\n        /* \"contracts/Counter.sol\":741:792  NumberChanged(msg.sender, counterNumb, \"decreased\") */\n      0xffffffffffffffffffffffffffffffffffffffff\n      and\n      0x46d0638a5bf9bcb40d1cf6f1dab4d3bac461b6dbe4bd66b50290bea084a1abfc\n        /* \"contracts/Counter.sol\":767:778  counterNumb */\n      sload(0x00)\n        /* \"contracts/Counter.sol\":741:792  NumberChanged(msg.sender, counterNumb, \"decreased\") */\n      mload(0x40)\n      tag_36\n      swap2\n      swap1\n      tag_37\n      jump\t// in\n    tag_36:\n      mload(0x40)\n      dup1\n      swap2\n      sub\n      swap1\n      log2\n        /* \"contracts/Counter.sol\":809:820  counterNumb */\n      sload(0x00)\n        /* \"contracts/Counter.sol\":802:820  return counterNumb */\n      swap1\n      pop\n        /* \"contracts/Counter.sol\":644:827  function decreaseNumb() public onlyOwner returns (uint256) {... */\n      swap1\n      jump\t// out\n        /* \"contracts/Counter.sol\":833:925  function getStoredNumber() public view returns (uint256) {... */\n    tag_19:\n        /* \"contracts/Counter.sol\":881:888  uint256 */\n      0x00\n        /* \"contracts/Counter.sol\":907:918  counterNumb */\n      dup1\n      sload\n        /* \"contracts/Counter.sol\":900:918  return counterNumb */\n      swap1\n      pop\n        /* \"contracts/Counter.sol\":833:925  function getStoredNumber() public view returns (uint256) {... */\n      swap1\n      jump\t// out\n        /* \"#utility.yul\":7:133   */\n    tag_39:\n        /* \"#utility.yul\":44:51   */\n      0x00\n        /* \"#utility.yul\":84:126   */\n      0xffffffffffffffffffffffffffffffffffffffff\n        /* \"#utility.yul\":77:82   */\n      dup3\n        /* \"#utility.yul\":73:127   */\n      and\n        /* \"#utility.yul\":62:127   */\n      swap1\n      pop\n        /* \"#utility.yul\":7:133   */\n      swap2\n      swap1\n      pop\n      jump\t// out\n        /* \"#utility.yul\":139:235   */\n    tag_40:\n        /* \"#utility.yul\":176:183   */\n      0x00\n        /* \"#utility.yul\":205:229   */\n      tag_55\n        /* \"#utility.yul\":223:228   */\n      dup3\n        /* \"#utility.yul\":205:229   */\n      tag_39\n      jump\t// in\n    tag_55:\n        /* \"#utility.yul\":194:229   */\n      swap1\n      pop\n        /* \"#utility.yul\":139:235   */\n      swap2\n      swap1\n      pop\n      jump\t// out\n        /* \"#utility.yul\":241:359   */\n    tag_41:\n        /* \"#utility.yul\":328:352   */\n      tag_57\n        /* \"#utility.yul\":346:351   */\n      dup2\n        /* \"#utility.yul\":328:352   */\n      tag_40\n      jump\t// in\n    tag_57:\n        /* \"#utility.yul\":323:326   */\n      dup3\n        /* \"#utility.yul\":316:353   */\n      mstore\n        /* \"#utility.yul\":241:359   */\n      pop\n      pop\n      jump\t// out\n        /* \"#utility.yul\":365:587   */\n    tag_10:\n        /* \"#utility.yul\":458:462   */\n      0x00\n        /* \"#utility.yul\":496:498   */\n      0x20\n        /* \"#utility.yul\":485:494   */\n      dup3\n        /* \"#utility.yul\":481:499   */\n      add\n        /* \"#utility.yul\":473:499   */\n      swap1\n      pop\n        /* \"#utility.yul\":509:580   */\n      tag_59\n        /* \"#utility.yul\":577:578   */\n      0x00\n        /* \"#utility.yul\":566:575   */\n      dup4\n        /* \"#utility.yul\":562:579   */\n      add\n        /* \"#utility.yul\":553:559   */\n      dup5\n        /* \"#utility.yul\":509:580   */\n      tag_41\n      jump\t// in\n    tag_59:\n        /* \"#utility.yul\":365:587   */\n      swap3\n      swap2\n      pop\n      pop\n      jump\t// out\n        /* \"#utility.yul\":593:670   */\n    tag_42:\n        /* \"#utility.yul\":630:637   */\n      0x00\n        /* \"#utility.yul\":659:664   */\n      dup2\n        /* \"#utility.yul\":648:664   */\n      swap1\n      pop\n        /* \"#utility.yul\":593:670   */\n      swap2\n      swap1\n      pop\n      jump\t// out\n        /* \"#utility.yul\":676:794   */\n    tag_43:\n        /* \"#utility.yul\":763:787   */\n      tag_62\n        /* \"#utility.yul\":781:786   */\n      dup2\n        /* \"#utility.yul\":763:787   */\n      tag_42\n      jump\t// in\n    tag_62:\n        /* \"#utility.yul\":758:761   */\n      dup3\n        /* \"#utility.yul\":751:788   */\n      mstore\n        /* \"#utility.yul\":676:794   */\n      pop\n      pop\n      jump\t// out\n        /* \"#utility.yul\":800:1022   */\n    tag_14:\n        /* \"#utility.yul\":893:897   */\n      0x00\n        /* \"#utility.yul\":931:933   */\n      0x20\n        /* \"#utility.yul\":920:929   */\n      dup3\n        /* \"#utility.yul\":916:934   */\n      add\n        /* \"#utility.yul\":908:934   */\n      swap1\n      pop\n        /* \"#utility.yul\":944:1015   */\n      tag_64\n        /* \"#utility.yul\":1012:1013   */\n      0x00\n        /* \"#utility.yul\":1001:1010   */\n      dup4\n        /* \"#utility.yul\":997:1014   */\n      add\n        /* \"#utility.yul\":988:994   */\n      dup5\n        /* \"#utility.yul\":944:1015   */\n      tag_43\n      jump\t// in\n    tag_64:\n        /* \"#utility.yul\":800:1022   */\n      swap3\n      swap2\n      pop\n      pop\n      jump\t// out\n        /* \"#utility.yul\":1028:1197   */\n    tag_44:\n        /* \"#utility.yul\":1112:1123   */\n      0x00\n        /* \"#utility.yul\":1146:1152   */\n      dup3\n        /* \"#utility.yul\":1141:1144   */\n      dup3\n        /* \"#utility.yul\":1134:1153   */\n      mstore\n        /* \"#utility.yul\":1186:1190   */\n      0x20\n        /* \"#utility.yul\":1181:1184   */\n      dup3\n        /* \"#utility.yul\":1177:1191   */\n      add\n        /* \"#utility.yul\":1162:1191   */\n      swap1\n      pop\n        /* \"#utility.yul\":1028:1197   */\n      swap3\n      swap2\n      pop\n      pop\n      jump\t// out\n        /* \"#utility.yul\":1203:1382   */\n    tag_45:\n        /* \"#utility.yul\":1343:1374   */\n      0x4f6e6c79206f776e65722063616e206d6f6469667920636f756e746572000000\n        /* \"#utility.yul\":1339:1340   */\n      0x00\n        /* \"#utility.yul\":1331:1337   */\n      dup3\n        /* \"#utility.yul\":1327:1341   */\n      add\n        /* \"#utility.yul\":1320:1375   */\n      mstore\n        /* \"#utility.yul\":1203:1382   */\n      pop\n      jump\t// out\n        /* \"#utility.yul\":1388:1754   */\n    tag_46:\n        /* \"#utility.yul\":1530:1533   */\n      0x00\n        /* \"#utility.yul\":1551:1618   */\n      tag_68\n        /* \"#utility.yul\":1615:1617   */\n      0x1d\n        /* \"#utility.yul\":1610:1613   */\n      dup4\n        /* \"#utility.yul\":1551:1618   */\n      tag_44\n      jump\t// in\n    tag_68:\n        /* \"#utility.yul\":1544:1618   */\n      swap2\n      pop\n        /* \"#utility.yul\":1627:1720   */\n      tag_69\n        /* \"#utility.yul\":1716:1719   */\n      dup3\n        /* \"#utility.yul\":1627:1720   */\n      tag_45\n      jump\t// in\n    tag_69:\n        /* \"#utility.yul\":1745:1747   */\n      0x20\n        /* \"#utility.yul\":1740:1743   */\n      dup3\n        /* \"#utility.yul\":1736:1748   */\n      add\n        /* \"#utility.yul\":1729:1748   */\n      swap1\n      pop\n        /* \"#utility.yul\":1388:1754   */\n      swap2\n      swap1\n      pop\n      jump\t// out\n        /* \"#utility.yul\":1760:2179   */\n    tag_24:\n        /* \"#utility.yul\":1926:1930   */\n      0x00\n        /* \"#utility.yul\":1964:1966   */\n      0x20\n        /* \"#utility.yul\":1953:1962   */\n      dup3\n        /* \"#utility.yul\":1949:1967   */\n      add\n        /* \"#utility.yul\":1941:1967   */\n      swap1\n      pop\n        /* \"#utility.yul\":2013:2022   */\n      dup2\n        /* \"#utility.yul\":2007:2011   */\n      dup2\n        /* \"#utility.yul\":2003:2023   */\n      sub\n        /* \"#utility.yul\":1999:2000   */\n      0x00\n        /* \"#utility.yul\":1988:1997   */\n      dup4\n        /* \"#utility.yul\":1984:2001   */\n      add\n        /* \"#utility.yul\":1977:2024   */\n      mstore\n        /* \"#utility.yul\":2041:2172   */\n      tag_71\n        /* \"#utility.yul\":2167:2171   */\n      dup2\n        /* \"#utility.yul\":2041:2172   */\n      tag_46\n      jump\t// in\n    tag_71:\n        /* \"#utility.yul\":2033:2172   */\n      swap1\n      pop\n        /* \"#utility.yul\":1760:2179   */\n      swap2\n      swap1\n      pop\n      jump\t// out\n        /* \"#utility.yul\":2185:2365   */\n    tag_47:\n        /* \"#utility.yul\":2233:2310   */\n      0x4e487b7100000000000000000000000000000000000000000000000000000000\n        /* \"#utility.yul\":2230:2231   */\n      0x00\n        /* \"#utility.yul\":2223:2311   */\n      mstore\n        /* \"#utility.yul\":2330:2334   */\n      0x11\n        /* \"#utility.yul\":2327:2328   */\n      0x04\n        /* \"#utility.yul\":2320:2335   */\n      mstore\n        /* \"#utility.yul\":2354:2358   */\n      0x24\n        /* \"#utility.yul\":2351:2352   */\n      0x00\n        /* \"#utility.yul\":2344:2359   */\n      revert\n        /* \"#utility.yul\":2371:2604   */\n    tag_27:\n        /* \"#utility.yul\":2410:2413   */\n      0x00\n        /* \"#utility.yul\":2433:2457   */\n      tag_74\n        /* \"#utility.yul\":2451:2456   */\n      dup3\n        /* \"#utility.yul\":2433:2457   */\n      tag_42\n      jump\t// in\n    tag_74:\n        /* \"#utility.yul\":2424:2457   */\n      swap2\n      pop\n        /* \"#utility.yul\":2479:2545   */\n      0xffffffffffffffffffffffffffffffffffffffffffffffffffffffffffffffff\n        /* \"#utility.yul\":2472:2477   */\n      dup3\n        /* \"#utility.yul\":2469:2546   */\n      sub\n        /* \"#utility.yul\":2466:2569   */\n      tag_75\n      jumpi\n        /* \"#utility.yul\":2549:2567   */\n      tag_76\n      tag_47\n      jump\t// in\n    tag_76:\n        /* \"#utility.yul\":2466:2569   */\n    tag_75:\n        /* \"#utility.yul\":2596:2597   */\n      0x01\n        /* \"#utility.yul\":2589:2594   */\n      dup3\n        /* \"#utility.yul\":2585:2598   */\n      add\n        /* \"#utility.yul\":2578:2598   */\n      swap1\n      pop\n        /* \"#utility.yul\":2371:2604   */\n      swap2\n      swap1\n      pop\n      jump\t// out\n        /* \"#utility.yul\":2610:2769   */\n    tag_48:\n        /* \"#utility.yul\":2750:2761   */\n      0x696e637265617365640000000000000000000000000000000000000000000000\n        /* \"#utility.yul\":2746:2747   */\n      0x00\n        /* \"#utility.yul\":2738:2744   */\n      dup3\n        /* \"#utility.yul\":2734:2748   */\n      add\n        /* \"#utility.yul\":2727:2762   */\n      mstore\n        /* \"#utility.yul\":2610:2769   */\n      pop\n      jump\t// out\n        /* \"#utility.yul\":2775:3140   */\n    tag_49:\n        /* \"#utility.yul\":2917:2920   */\n      0x00\n        /* \"#utility.yul\":2938:3004   */\n      tag_79\n        /* \"#utility.yul\":3002:3003   */\n      0x09\n        /* \"#utility.yul\":2997:3000   */\n      dup4\n        /* \"#utility.yul\":2938:3004   */\n      tag_44\n      jump\t// in\n    tag_79:\n        /* \"#utility.yul\":2931:3004   */\n      swap2\n      pop\n        /* \"#utility.yul\":3013:3106   */\n      tag_80\n        /* \"#utility.yul\":3102:3105   */\n      dup3\n        /* \"#utility.yul\":3013:3106   */\n      tag_48\n      jump\t// in\n    tag_80:\n        /* \"#utility.yul\":3131:3133   */\n      0x20\n        /* \"#utility.yul\":3126:3129   */\n      dup3\n        /* \"#utility.yul\":3122:3134   */\n      add\n        /* \"#utility.yul\":3115:3134   */\n      swap1\n      pop\n        /* \"#utility.yul\":2775:3140   */\n      swap2\n      swap1\n      pop\n      jump\t// out\n        /* \"#utility.yul\":3146:3675   */\n    tag_29:\n        /* \"#utility.yul\":3340:3344   */\n      0x00\n        /* \"#utility.yul\":3378:3380   */\n      0x40\n        /* \"#utility.yul\":3367:3376   */\n      dup3\n        /* \"#utility.yul\":3363:3381   */\n      add\n        /* \"#utility.yul\":3355:3381   */\n      swap1\n      pop\n        /* \"#utility.yul\":3391:3462   */\n      tag_82\n        /* \"#utility.yul\":3459:3460   */\n      0x00\n        /* \"#utility.yul\":3448:3457   */\n      dup4\n        /* \"#utility.yul\":3444:3461   */\n      add\n        /* \"#utility.yul\":3435:3441   */\n      dup5\n        /* \"#utility.yul\":3391:3462   */\n      tag_43\n      jump\t// in\n    tag_82:\n        /* \"#utility.yul\":3509:3518   */\n      dup2\n        /* \"#utility.yul\":3503:3507   */\n      dup2\n        /* \"#utility.yul\":3499:3519   */\n      sub\n        /* \"#utility.yul\":3494:3496   */\n      0x20\n        /* \"#utility.yul\":3483:3492   */\n      dup4\n        /* \"#utility.yul\":3479:3497   */\n      add\n        /* \"#utility.yul\":3472:3520   */\n      mstore\n        /* \"#utility.yul\":3537:3668   */\n      tag_83\n        /* \"#utility.yul\":3663:3667   */\n      dup2\n        /* \"#utility.yul\":3537:3668   */\n      tag_49\n      jump\t// in\n    tag_83:\n        /* \"#utility.yul\":3529:3668   */\n      swap1\n      pop\n        /* \"#utility.yul\":3146:3675   */\n      swap3\n      swap2\n      pop\n      pop\n      jump\t// out\n        /* \"#utility.yul\":3681:3852   */\n    tag_35:\n        /* \"#utility.yul\":3720:3723   */\n      0x00\n        /* \"#utility.yul\":3743:3767   */\n      tag_85\n        /* \"#utility.yul\":3761:3766   */\n      dup3\n        /* \"#utility.yul\":3743:3767   */\n      tag_42\n      jump\t// in\n    tag_85:\n        /* \"#utility.yul\":3734:3767   */\n      swap2\n      pop\n        /* \"#utility.yul\":3789:3793   */\n      0x00\n        /* \"#utility.yul\":3782:3787   */\n      dup3\n        /* \"#utility.yul\":3779:3794   */\n      sub\n        /* \"#utility.yul\":3776:3817   */\n      tag_86\n      jumpi\n        /* \"#utility.yul\":3797:3815   */\n      tag_87\n      tag_47\n      jump\t// in\n    tag_87:\n        /* \"#utility.yul\":3776:3817   */\n    tag_86:\n        /* \"#utility.yul\":3844:3845   */\n      0x01\n        /* \"#utility.yul\":3837:3842   */\n      dup3\n        /* \"#utility.yul\":3833:3846   */\n      sub\n        /* \"#utility.yul\":3826:3846   */\n      swap1\n      pop\n        /* \"#utility.yul\":3681:3852   */\n      swap2\n      swap1\n      pop\n      jump\t// out\n        /* \"#utility.yul\":3858:4017   */\n    tag_50:\n        /* \"#utility.yul\":3998:4009   */\n      0x6465637265617365640000000000000000000000000000000000000000000000\n        /* \"#utility.yul\":3994:3995   */\n      0x00\n        /* \"#utility.yul\":3986:3992   */\n      dup3\n        /* \"#utility.yul\":3982:3996   */\n      add\n        /* \"#utility.yul\":3975:4010   */\n      mstore\n        /* \"#utility.yul\":3858:4017   */\n      pop\n      jump\t// out\n        /* \"#utility.yul\":4023:4388   */\n    tag_51:\n        /* \"#utility.yul\":4165:4168   */\n      0x00\n        /* \"#utility.yul\":4186:4252   */\n      tag_90\n        /* \"#utility.yul\":4250:4251   */\n      0x09\n        /* \"#utility.yul\":4245:4248   */\n      dup4\n        /* \"#utility.yul\":4186:4252   */\n      tag_44\n      jump\t// in\n    tag_90:\n        /* \"#utility.yul\":4179:4252   */\n      swap2\n      pop\n        /* \"#utility.yul\":4261:4354   */\n      tag_91\n        /* \"#utility.yul\":4350:4353   */\n      dup3\n        /* \"#utility.yul\":4261:4354   */\n      tag_50\n      jump\t// in\n    tag_91:\n        /* \"#utility.yul\":4379:4381   */\n      0x20\n        /* \"#utility.yul\":4374:4377   */\n      dup3\n        /* \"#utility.yul\":4370:4382   */\n      add\n        /* \"#utility.yul\":4363:4382   */\n      swap1\n      pop\n        /* \"#utility.yul\":4023:4388   */\n      swap2\n      swap1\n      pop\n      jump\t// out\n        /* \"#utility.yul\":4394:4923   */\n    tag_37:\n        /* \"#utility.yul\":4588:4592   */\n      0x00\n        /* \"#utility.yul\":4626:4628   */\n      0x40\n        /* \"#utility.yul\":4615:4624   */\n      dup3\n        /* \"#utility.yul\":4611:4629   */\n      add\n        /* \"#utility.yul\":4603:4629   */\n      swap1\n      pop\n        /* \"#utility.yul\":4639:4710   */\n      tag_93\n        /* \"#utility.yul\":4707:4708   */\n      0x00\n        /* \"#utility.yul\":4696:4705   */\n      dup4\n        /* \"#utility.yul\":4692:4709   */\n      add\n        /* \"#utility.yul\":4683:4689   */\n      dup5\n        /* \"#utility.yul\":4639:4710   */\n      tag_43\n      jump\t// in\n    tag_93:\n        /* \"#utility.yul\":4757:4766   */\n      dup2\n        /* \"#utility.yul\":4751:4755   */\n      dup2\n        /* \"#utility.yul\":4747:4767   */\n      sub\n        /* \"#utility.yul\":4742:4744   */\n      0x20\n        /* \"#utility.yul\":4731:4740   */\n      dup4\n        /* \"#utility.yul\":4727:4745   */\n      add\n        /* \"#utility.yul\":4720:4768   */\n      mstore\n        /* \"#utility.yul\":4785:4916   */\n      tag_94\n        /* \"#utility.yul\":4911:4915   */\n      dup2\n        /* \"#utility.yul\":4785:4916   */\n      tag_51\n      jump\t// in\n    tag_94:\n        /* \"#utility.yul\":4777:4916   */\n      swap1\n      pop\n        /* \"#utility.yul\":4394:4923   */\n      swap3\n      swap2\n      pop\n      pop\n      jump\t// out\n\n    auxdata: 0xa26469706673582212205baea99982531eade7dd23185094cd3cba2d7c25eb5b0ade79c9d44264e03d4b64736f6c634300081a0033\n}\n",
				"bytecode": {
					"linkReferences": {},
					"object": "6080604052348015600e575f80fd5b506040516106873803806106878339818101604052810190602e919060ab565b3360015f6101000a81548173ffffffffffffffffffffffffffffffffffffffff021916908373ffffffffffffffffffffffffffffffffffffffff160217905550805f819055505060d1565b5f80fd5b5f819050919050565b608d81607d565b81146096575f80fd5b50565b5f8151905060a5816086565b92915050565b5f6020828403121560bd5760bc6079565b5b5f60c8848285016099565b91505092915050565b6105a9806100de5f395ff3fe608060405234801561000f575f80fd5b506004361061004a575f3560e01c80638da5cb5b1461004e578063cc00d22d1461006c578063d5b6c6781461008a578063fc412ba1146100a8575b5f80fd5b6100566100c6565b604051610063919061032a565b60405180910390f35b6100746100eb565b604051610081919061035b565b60405180910390f35b6100926101e7565b60405161009f919061035b565b60405180910390f35b6100b06102e3565b6040516100bd919061035b565b60405180910390f35b60015f9054906101000a900473ffffffffffffffffffffffffffffffffffffffff1681565b5f60015f9054906101000a900473ffffffffffffffffffffffffffffffffffffffff1673ffffffffffffffffffffffffffffffffffffffff163373ffffffffffffffffffffffffffffffffffffffff161461017b576040517f08c379a0000000000000000000000000000000000000000000000000000000008152600401610172906103ce565b60405180910390fd5b5f8081548092919061018c90610419565b91905055503373ffffffffffffffffffffffffffffffffffffffff167f46d0638a5bf9bcb40d1cf6f1dab4d3bac461b6dbe4bd66b50290bea084a1abfc5f546040516101d891906104aa565b60405180910390a25f54905090565b5f60015f9054906101000a900473ffffffffffffffffffffffffffffffffffffffff1673ffffffffffffffffffffffffffffffffffffffff163373ffffffffffffffffffffffffffffffffffffffff1614610277576040517f08c379a000000000000000000000000000000000000000000000000000000000815260040161026e906103ce565b60405180910390fd5b5f80815480929190610288906104d6565b91905055503373ffffffffffffffffffffffffffffffffffffffff167f46d0638a5bf9bcb40d1cf6f1dab4d3bac461b6dbe4bd66b50290bea084a1abfc5f546040516102d49190610547565b60405180910390a25f54905090565b5f8054905090565b5f73ffffffffffffffffffffffffffffffffffffffff82169050919050565b5f610314826102eb565b9050919050565b6103248161030a565b82525050565b5f60208201905061033d5f83018461031b565b92915050565b5f819050919050565b61035581610343565b82525050565b5f60208201905061036e5f83018461034c565b92915050565b5f82825260208201905092915050565b7f4f6e6c79206f776e65722063616e206d6f6469667920636f756e7465720000005f82015250565b5f6103b8601d83610374565b91506103c382610384565b602082019050919050565b5f6020820190508181035f8301526103e5816103ac565b9050919050565b7f4e487b71000000000000000000000000000000000000000000000000000000005f52601160045260245ffd5b5f61042382610343565b91507fffffffffffffffffffffffffffffffffffffffffffffffffffffffffffffffff8203610455576104546103ec565b5b600182019050919050565b7f696e6372656173656400000000000000000000000000000000000000000000005f82015250565b5f610494600983610374565b915061049f82610460565b602082019050919050565b5f6040820190506104bd5f83018461034c565b81810360208301526104ce81610488565b905092915050565b5f6104e082610343565b91505f82036104f2576104f16103ec565b5b600182039050919050565b7f64656372656173656400000000000000000000000000000000000000000000005f82015250565b5f610531600983610374565b915061053c826104fd565b602082019050919050565b5f60408201905061055a5f83018461034c565b818103602083015261056b81610525565b90509291505056fea26469706673582212205baea99982531eade7dd23185094cd3cba2d7c25eb5b0ade79c9d44264e03d4b64736f6c634300081a0033",
					"opcodes": "PUSH1 0x80 PUSH1 0x40 MSTORE CALLVALUE DUP1 ISZERO PUSH1 0xE JUMPI PUSH0 DUP1 REVERT JUMPDEST POP PUSH1 0x40 MLOAD PUSH2 0x687 CODESIZE SUB DUP1 PUSH2 0x687 DUP4 CODECOPY DUP2 DUP2 ADD PUSH1 0x40 MSTORE DUP2 ADD SWAP1 PUSH1 0x2E SWAP2 SWAP1 PUSH1 0xAB JUMP JUMPDEST CALLER PUSH1 0x1 PUSH0 PUSH2 0x100 EXP DUP2 SLOAD DUP2 PUSH20 0xFFFFFFFFFFFFFFFFFFFFFFFFFFFFFFFFFFFFFFFF MUL NOT AND SWAP1 DUP4 PUSH20 0xFFFFFFFFFFFFFFFFFFFFFFFFFFFFFFFFFFFFFFFF AND MUL OR SWAP1 SSTORE POP DUP1 PUSH0 DUP2 SWAP1 SSTORE POP POP PUSH1 0xD1 JUMP JUMPDEST PUSH0 DUP1 REVERT JUMPDEST PUSH0 DUP2 SWAP1 POP SWAP2 SWAP1 POP JUMP JUMPDEST PUSH1 0x8D DUP2 PUSH1 0x7D JUMP JUMPDEST DUP2 EQ PUSH1 0x96 JUMPI PUSH0 DUP1 REVERT JUMPDEST POP JUMP JUMPDEST PUSH0 DUP2 MLOAD SWAP1 POP PUSH1 0xA5 DUP2 PUSH1 0x86 JUMP JUMPDEST SWAP3 SWAP2 POP POP JUMP JUMPDEST PUSH0 PUSH1 0x20 DUP3 DUP5 SUB SLT ISZERO PUSH1 0xBD JUMPI PUSH1 0xBC PUSH1 0x79 JUMP JUMPDEST JUMPDEST PUSH0 PUSH1 0xC8 DUP5 DUP3 DUP6 ADD PUSH1 0x99 JUMP JUMPDEST SWAP2 POP POP SWAP3 SWAP2 POP POP JUMP JUMPDEST PUSH2 0x5A9 DUP1 PUSH2 0xDE PUSH0 CODECOPY PUSH0 RETURN INVALID PUSH1 0x80 PUSH1 0x40 MSTORE CALLVALUE DUP1 ISZERO PUSH2 0xF JUMPI PUSH0 DUP1 REVERT JUMPDEST POP PUSH1 0x4 CALLDATASIZE LT PUSH2 0x4A JUMPI PUSH0 CALLDATALOAD PUSH1 0xE0 SHR DUP1 PUSH4 0x8DA5CB5B EQ PUSH2 0x4E JUMPI DUP1 PUSH4 0xCC00D22D EQ PUSH2 0x6C JUMPI DUP1 PUSH4 0xD5B6C678 EQ PUSH2 0x8A JUMPI DUP1 PUSH4 0xFC412BA1 EQ PUSH2 0xA8 JUMPI JUMPDEST PUSH0 DUP1 REVERT JUMPDEST PUSH2 0x56 PUSH2 0xC6 JUMP JUMPDEST PUSH1 0x40 MLOAD PUSH2 0x63 SWAP2 SWAP1 PUSH2 0x32A JUMP JUMPDEST PUSH1 0x40 MLOAD DUP1 SWAP2 SUB SWAP1 RETURN JUMPDEST PUSH2 0x74 PUSH2 0xEB JUMP JUMPDEST PUSH1 0x40 MLOAD PUSH2 0x81 SWAP2 SWAP1 PUSH2 0x35B JUMP JUMPDEST PUSH1 0x40 MLOAD DUP1 SWAP2 SUB SWAP1 RETURN JUMPDEST PUSH2 0x92 PUSH2 0x1E7 JUMP JUMPDEST PUSH1 0x40 MLOAD PUSH2 0x9F SWAP2 SWAP1 PUSH2 0x35B JUMP JUMPDEST PUSH1 0x40 MLOAD DUP1 SWAP2 SUB SWAP1 RETURN JUMPDEST PUSH2 0xB0 PUSH2 0x2E3 JUMP JUMPDEST PUSH1 0x40 MLOAD PUSH2 0xBD SWAP2 SWAP1 PUSH2 0x35B JUMP JUMPDEST PUSH1 0x40 MLOAD DUP1 SWAP2 SUB SWAP1 RETURN JUMPDEST PUSH1 0x1 PUSH0 SWAP1 SLOAD SWAP1 PUSH2 0x100 EXP SWAP1 DIV PUSH20 0xFFFFFFFFFFFFFFFFFFFFFFFFFFFFFFFFFFFFFFFF AND DUP2 JUMP JUMPDEST PUSH0 PUSH1 0x1 PUSH0 SWAP1 SLOAD SWAP1 PUSH2 0x100 EXP SWAP1 DIV PUSH20 0xFFFFFFFFFFFFFFFFFFFFFFFFFFFFFFFFFFFFFFFF AND PUSH20 0xFFFFFFFFFFFFFFFFFFFFFFFFFFFFFFFFFFFFFFFF AND CALLER PUSH20 0xFFFFFFFFFFFFFFFFFFFFFFFFFFFFFFFFFFFFFFFF AND EQ PUSH2 0x17B JUMPI PUSH1 0x40 MLOAD PUSH32 0x8C379A000000000000000000000000000000000000000000000000000000000 DUP2 MSTORE PUSH1 0x4 ADD PUSH2 0x172 SWAP1 PUSH2 0x3CE JUMP JUMPDEST PUSH1 0x40 MLOAD DUP1 SWAP2 SUB SWAP1 REVERT JUMPDEST PUSH0 DUP1 DUP2 SLOAD DUP1 SWAP3 SWAP2 SWAP1 PUSH2 0x18C SWAP1 PUSH2 0x419 JUMP JUMPDEST SWAP2 SWAP1 POP SSTORE POP CALLER PUSH20 0xFFFFFFFFFFFFFFFFFFFFFFFFFFFFFFFFFFFFFFFF AND PUSH32 0x46D0638A5BF9BCB40D1CF6F1DAB4D3BAC461B6DBE4BD66B50290BEA084A1ABFC PUSH0 SLOAD PUSH1 0x40 MLOAD PUSH2 0x1D8 SWAP2 SWAP1 PUSH2 0x4AA JUMP JUMPDEST PUSH1 0x40 MLOAD DUP1 SWAP2 SUB SWAP1 LOG2 PUSH0 SLOAD SWAP1 POP SWAP1 JUMP JUMPDEST PUSH0 PUSH1 0x1 PUSH0 SWAP1 SLOAD SWAP1 PUSH2 0x100 EXP SWAP1 DIV PUSH20 0xFFFFFFFFFFFFFFFFFFFFFFFFFFFFFFFFFFFFFFFF AND PUSH20 0xFFFFFFFFFFFFFFFFFFFFFFFFFFFFFFFFFFFFFFFF AND CALLER PUSH20 0xFFFFFFFFFFFFFFFFFFFFFFFFFFFFFFFFFFFFFFFF AND EQ PUSH2 0x277 JUMPI PUSH1 0x40 MLOAD PUSH32 0x8C379A000000000000000000000000000000000000000000000000000000000 DUP2 MSTORE PUSH1 0x4 ADD PUSH2 0x26E SWAP1 PUSH2 0x3CE JUMP JUMPDEST PUSH1 0x40 MLOAD DUP1 SWAP2 SUB SWAP1 REVERT JUMPDEST PUSH0 DUP1 DUP2 SLOAD DUP1 SWAP3 SWAP2 SWAP1 PUSH2 0x288 SWAP1 PUSH2 0x4D6 JUMP JUMPDEST SWAP2 SWAP1 POP SSTORE POP CALLER PUSH20 0xFFFFFFFFFFFFFFFFFFFFFFFFFFFFFFFFFFFFFFFF AND PUSH32 0x46D0638A5BF9BCB40D1CF6F1DAB4D3BAC461B6DBE4BD66B50290BEA084A1ABFC PUSH0 SLOAD PUSH1 0x40 MLOAD PUSH2 0x2D4 SWAP2 SWAP1 PUSH2 0x547 JUMP JUMPDEST PUSH1 0x40 MLOAD DUP1 SWAP2 SUB SWAP1 LOG2 PUSH0 SLOAD SWAP1 POP SWAP1 JUMP JUMPDEST PUSH0 DUP1 SLOAD SWAP1 POP SWAP1 JUMP JUMPDEST PUSH0 PUSH20 0xFFFFFFFFFFFFFFFFFFFFFFFFFFFFFFFFFFFFFFFF DUP3 AND SWAP1 POP SWAP2 SWAP1 POP JUMP JUMPDEST PUSH0 PUSH2 0x314 DUP3 PUSH2 0x2EB JUMP JUMPDEST SWAP1 POP SWAP2 SWAP1 POP JUMP JUMPDEST PUSH2 0x324 DUP2 PUSH2 0x30A JUMP JUMPDEST DUP3 MSTORE POP POP JUMP JUMPDEST PUSH0 PUSH1 0x20 DUP3 ADD SWAP1 POP PUSH2 0x33D PUSH0 DUP4 ADD DUP5 PUSH2 0x31B JUMP JUMPDEST SWAP3 SWAP2 POP POP JUMP JUMPDEST PUSH0 DUP2 SWAP1 POP SWAP2 SWAP1 POP JUMP JUMPDEST PUSH2 0x355 DUP2 PUSH2 0x343 JUMP JUMPDEST DUP3 MSTORE POP POP JUMP JUMPDEST PUSH0 PUSH1 0x20 DUP3 ADD SWAP1 POP PUSH2 0x36E PUSH0 DUP4 ADD DUP5 PUSH2 0x34C JUMP JUMPDEST SWAP3 SWAP2 POP POP JUMP JUMPDEST PUSH0 DUP3 DUP3 MSTORE PUSH1 0x20 DUP3 ADD SWAP1 POP SWAP3 SWAP2 POP POP JUMP JUMPDEST PUSH32 0x4F6E6C79206F776E65722063616E206D6F6469667920636F756E746572000000 PUSH0 DUP3 ADD MSTORE POP JUMP JUMPDEST PUSH0 PUSH2 0x3B8 PUSH1 0x1D DUP4 PUSH2 0x374 JUMP JUMPDEST SWAP2 POP PUSH2 0x3C3 DUP3 PUSH2 0x384 JUMP JUMPDEST PUSH1 0x20 DUP3 ADD SWAP1 POP SWAP2 SWAP1 POP JUMP JUMPDEST PUSH0 PUSH1 0x20 DUP3 ADD SWAP1 POP DUP2 DUP2 SUB PUSH0 DUP4 ADD MSTORE PUSH2 0x3E5 DUP2 PUSH2 0x3AC JUMP JUMPDEST SWAP1 POP SWAP2 SWAP1 POP JUMP JUMPDEST PUSH32 0x4E487B7100000000000000000000000000000000000000000000000000000000 PUSH0 MSTORE PUSH1 0x11 PUSH1 0x4 MSTORE PUSH1 0x24 PUSH0 REVERT JUMPDEST PUSH0 PUSH2 0x423 DUP3 PUSH2 0x343 JUMP JUMPDEST SWAP2 POP PUSH32 0xFFFFFFFFFFFFFFFFFFFFFFFFFFFFFFFFFFFFFFFFFFFFFFFFFFFFFFFFFFFFFFFF DUP3 SUB PUSH2 0x455 JUMPI PUSH2 0x454 PUSH2 0x3EC JUMP JUMPDEST JUMPDEST PUSH1 0x1 DUP3 ADD SWAP1 POP SWAP2 SWAP1 POP JUMP JUMPDEST PUSH32 0x696E637265617365640000000000000000000000000000000000000000000000 PUSH0 DUP3 ADD MSTORE POP JUMP JUMPDEST PUSH0 PUSH2 0x494 PUSH1 0x9 DUP4 PUSH2 0x374 JUMP JUMPDEST SWAP2 POP PUSH2 0x49F DUP3 PUSH2 0x460 JUMP JUMPDEST PUSH1 0x20 DUP3 ADD SWAP1 POP SWAP2 SWAP1 POP JUMP JUMPDEST PUSH0 PUSH1 0x40 DUP3 ADD SWAP1 POP PUSH2 0x4BD PUSH0 DUP4 ADD DUP5 PUSH2 0x34C JUMP JUMPDEST DUP2 DUP2 SUB PUSH1 0x20 DUP4 ADD MSTORE PUSH2 0x4CE DUP2 PUSH2 0x488 JUMP JUMPDEST SWAP1 POP SWAP3 SWAP2 POP POP JUMP JUMPDEST PUSH0 PUSH2 0x4E0 DUP3 PUSH2 0x343 JUMP JUMPDEST SWAP2 POP PUSH0 DUP3 SUB PUSH2 0x4F2 JUMPI PUSH2 0x4F1 PUSH2 0x3EC JUMP JUMPDEST JUMPDEST PUSH1 0x1 DUP3 SUB SWAP1 POP SWAP2 SWAP1 POP JUMP JUMPDEST PUSH32 0x6465637265617365640000000000000000000000000000000000000000000000 PUSH0 DUP3 ADD MSTORE POP JUMP JUMPDEST PUSH0 PUSH2 0x531 PUSH1 0x9 DUP4 PUSH2 0x374 JUMP JUMPDEST SWAP2 POP PUSH2 0x53C DUP3 PUSH2 0x4FD JUMP JUMPDEST PUSH1 0x20 DUP3 ADD SWAP1 POP SWAP2 SWAP1 POP JUMP JUMPDEST PUSH0 PUSH1 0x40 DUP3 ADD SWAP1 POP PUSH2 0x55A PUSH0 DUP4 ADD DUP5 PUSH2 0x34C JUMP JUMPDEST DUP2 DUP2 SUB PUSH1 0x20 DUP4 ADD MSTORE PUSH2 0x56B DUP2 PUSH2 0x525 JUMP JUMPDEST SWAP1 POP SWAP3 SWAP2 POP POP JUMP INVALID LOG2 PUSH5 0x6970667358 0x22 SLT KECCAK256 JUMPDEST 0xAE 0xA9 SWAP10 DUP3 MSTORE8 0x1E 0xAD 0xE7 0xDD 0x23 XOR POP SWAP5 0xCD EXTCODECOPY 0xBA 0x2D PUSH29 0x25EB5B0ADE79C9D44264E03D4B64736F6C634300081A00330000000000 "
				},
				"gasEstimates": {
					"creation": {
						"codeDepositCost": "289800",
						"executionCost": "infinite",
						"totalCost": "infinite"
					},
					"external": {
						"decreaseNumb()": "infinite",
						"getStoredNumber()": "2476",
						"increaseNumb()": "infinite",
						"owner()": "2486"
					}
				},
				"methodIdentifiers": {
					"decreaseNumb()": "d5b6c678",
					"getStoredNumber()": "fc412ba1",
					"increaseNumb()": "cc00d22d",
					"owner()": "8da5cb5b"
				}
			},
			"storageLayout": {
				"storage": [
					{
						"astId": 3,
						"contract": "contracts/Counter.sol:Counter",
						"label": "counterNumb",
						"offset": 0,
						"slot": "0",
						"type": "t_uint256"
					},
					{
						"astId": 5,
						"contract": "contracts/Counter.sol:Counter",
						"label": "owner",
						"offset": 0,
						"slot": "1",
						"type": "t_address"
					}
				],
				"types": {
					"t_address": {
						"encoding": "inplace",
						"label": "address",
						"numberOfBytes": "20"
					},
					"t_uint256": {
						"encoding": "inplace",
						"label": "uint256",
						"numberOfBytes": "32"
					}
				}
			},
			"userdoc": {
				"kind": "user",
				"methods": {},
				"version": 1
			}
		}
	}
}