{
	"data": {
		"bytecode": {
			"linkReferences": {},
			"object": "6080604052348015600e575f80fd5b50610d3f8061001c5f395ff3fe608060405234801561000f575f80fd5b5060043610610055575f3560e01c806312eb77db146100595780631aae0ed714610075578063365b98b2146100a5578063598757e9146100d95780638da5cb5b146100f5575b5f80fd5b610073600480360381019061006e919061071f565b610113565b005b61008f600480360381019061008a91906107e0565b6101b5565b60405161009c9190610903565b60405180910390f35b6100bf60048036038101906100ba91906107e0565b61032d565b6040516100d0959493929190610989565b60405180910390f35b6100f360048036038101906100ee919061071f565b610477565b005b6100fd610519565b60405161010a9190610a27565b60405180910390f35b6040518060a0016040528087815260200185815260200184815260200183815260200182151581525060015f8781526020019081526020015f205f820151815f0190816101609190610c3a565b506020820151816001015560408201518160020190816101809190610c3a565b50606082015181600301556080820151816004015f6101000a81548160ff021916908315150217905550905050505050505050565b6101bd61053c565b60015f8381526020019081526020015f206040518060a00160405290815f820180546101e890610a6d565b80601f016020809104026020016040519081016040528092919081815260200182805461021490610a6d565b801561025f5780601f106102365761010080835404028352916020019161025f565b820191905f5260205f20905b81548152906001019060200180831161024257829003601f168201915b505050505081526020016001820154815260200160028201805461028290610a6d565b80601f01602080910402602001604051908101604052809291908181526020018280546102ae90610a6d565b80156102f95780601f106102d0576101008083540402835291602001916102f9565b820191905f5260205f20905b8154815290600101906020018083116102dc57829003601f168201915b5050505050815260200160038201548152602001600482015f9054906101000a900460ff1615151515815250509050919050565b6001602052805f5260405f205f91509050805f01805461034c90610a6d565b80601f016020809104026020016040519081016040528092919081815260200182805461037890610a6d565b80156103c35780601f1061039a576101008083540402835291602001916103c3565b820191905f5260205f20905b8154815290600101906020018083116103a657829003601f168201915b5050505050908060010154908060020180546103de90610a6d565b80601f016020809104026020016040519081016040528092919081815260200182805461040a90610a6d565b80156104555780601f1061042c57610100808354040283529160200191610455565b820191905f5260205f20905b81548152906001019060200180831161043857829003601f168201915b505050505090806003015490806004015f9054906101000a900460ff16905085565b6040518060a0016040528087815260200185815260200184815260200183815260200182151581525060015f8781526020019081526020015f205f820151815f0190816104c49190610c3a565b506020820151816001015560408201518160020190816104e49190610c3a565b50606082015181600301556080820151816004015f6101000a81548160ff021916908315150217905550905050505050505050565b5f8054906101000a900473ffffffffffffffffffffffffffffffffffffffff1681565b6040518060a00160405280606081526020015f8152602001606081526020015f81526020015f151581525090565b5f604051905090565b5f80fd5b5f80fd5b5f80fd5b5f80fd5b5f601f19601f8301169050919050565b7f4e487b71000000000000000000000000000000000000000000000000000000005f52604160045260245ffd5b6105c982610583565b810181811067ffffffffffffffff821117156105e8576105e7610593565b5b80604052505050565b5f6105fa61056a565b905061060682826105c0565b919050565b5f67ffffffffffffffff82111561062557610624610593565b5b61062e82610583565b9050602081019050919050565b828183375f83830152505050565b5f61065b6106568461060b565b6105f1565b9050828152602081018484840111156106775761067661057f565b5b61068284828561063b565b509392505050565b5f82601f83011261069e5761069d61057b565b5b81356106ae848260208601610649565b91505092915050565b5f819050919050565b6106c9816106b7565b81146106d3575f80fd5b50565b5f813590506106e4816106c0565b92915050565b5f8115159050919050565b6106fe816106ea565b8114610708575f80fd5b50565b5f81359050610719816106f5565b92915050565b5f805f805f8060c0878903121561073957610738610573565b5b5f87013567ffffffffffffffff81111561075657610755610577565b5b61076289828a0161068a565b965050602061077389828a016106d6565b955050604061078489828a016106d6565b945050606087013567ffffffffffffffff8111156107a5576107a4610577565b5b6107b189828a0161068a565b93505060806107c289828a016106d6565b92505060a06107d389828a0161070b565b9150509295509295509295565b5f602082840312156107f5576107f4610573565b5b5f610802848285016106d6565b91505092915050565b5f81519050919050565b5f82825260208201905092915050565b8281835e5f83830152505050565b5f61083d8261080b565b6108478185610815565b9350610857818560208601610825565b61086081610583565b840191505092915050565b610874816106b7565b82525050565b610883816106ea565b82525050565b5f60a083015f8301518482035f8601526108a38282610833565b91505060208301516108b8602086018261086b565b50604083015184820360408601526108d08282610833565b91505060608301516108e5606086018261086b565b5060808301516108f8608086018261087a565b508091505092915050565b5f6020820190508181035f83015261091b8184610889565b905092915050565b5f82825260208201905092915050565b5f61093d8261080b565b6109478185610923565b9350610957818560208601610825565b61096081610583565b840191505092915050565b610974816106b7565b82525050565b610983816106ea565b82525050565b5f60a0820190508181035f8301526109a18188610933565b90506109b0602083018761096b565b81810360408301526109c28186610933565b90506109d1606083018561096b565b6109de608083018461097a565b9695505050505050565b5f73ffffffffffffffffffffffffffffffffffffffff82169050919050565b5f610a11826109e8565b9050919050565b610a2181610a07565b82525050565b5f602082019050610a3a5f830184610a18565b92915050565b7f4e487b71000000000000000000000000000000000000000000000000000000005f52602260045260245ffd5b5f6002820490506001821680610a8457607f821691505b602082108103610a9757610a96610a40565b5b50919050565b5f819050815f5260205f209050919050565b5f6020601f8301049050919050565b5f82821b905092915050565b5f60088302610af97fffffffffffffffffffffffffffffffffffffffffffffffffffffffffffffffff82610abe565b610b038683610abe565b95508019841693508086168417925050509392505050565b5f819050919050565b5f610b3e610b39610b34846106b7565b610b1b565b6106b7565b9050919050565b5f819050919050565b610b5783610b24565b610b6b610b6382610b45565b848454610aca565b825550505050565b5f90565b610b7f610b73565b610b8a818484610b4e565b505050565b5b81811015610bad57610ba25f82610b77565b600181019050610b90565b5050565b601f821115610bf257610bc381610a9d565b610bcc84610aaf565b81016020851015610bdb578190505b610bef610be785610aaf565b830182610b8f565b50505b505050565b5f82821c905092915050565b5f610c125f1984600802610bf7565b1980831691505092915050565b5f610c2a8383610c03565b9150826002028217905092915050565b610c438261080b565b67ffffffffffffffff811115610c5c57610c5b610593565b5b610c668254610a6d565b610c71828285610bb1565b5f60209050601f831160018114610ca2575f8415610c90578287015190505b610c9a8582610c1f565b865550610d01565b601f198416610cb086610a9d565b5f5b82811015610cd757848901518255600182019150602085019450602081019050610cb2565b86831015610cf45784890151610cf0601f891682610c03565b8355505b6001600288020188555050505b50505050505056fea26469706673582212200944001953e5751524a5a25641052941b39cffbb7d3fe81193e97522a0b32c0b64736f6c634300081a0033",
			"opcodes": "PUSH1 0x80 PUSH1 0x40 MSTORE CALLVALUE DUP1 ISZERO PUSH1 0xE JUMPI PUSH0 DUP1 REVERT JUMPDEST POP PUSH2 0xD3F DUP1 PUSH2 0x1C PUSH0 CODECOPY PUSH0 RETURN INVALID PUSH1 0x80 PUSH1 0x40 MSTORE CALLVALUE DUP1 ISZERO PUSH2 0xF JUMPI PUSH0 DUP1 REVERT JUMPDEST POP PUSH1 0x4 CALLDATASIZE LT PUSH2 0x55 JUMPI PUSH0 CALLDATALOAD PUSH1 0xE0 SHR DUP1 PUSH4 0x12EB77DB EQ PUSH2 0x59 JUMPI DUP1 PUSH4 0x1AAE0ED7 EQ PUSH2 0x75 JUMPI DUP1 PUSH4 0x365B98B2 EQ PUSH2 0xA5 JUMPI DUP1 PUSH4 0x598757E9 EQ PUSH2 0xD9 JUMPI DUP1 PUSH4 0x8DA5CB5B EQ PUSH2 0xF5 JUMPI JUMPDEST PUSH0 DUP1 REVERT JUMPDEST PUSH2 0x73 PUSH1 0x4 DUP1 CALLDATASIZE SUB DUP2 ADD SWAP1 PUSH2 0x6E SWAP2 SWAP1 PUSH2 0x71F JUMP JUMPDEST PUSH2 0x113 JUMP JUMPDEST STOP JUMPDEST PUSH2 0x8F PUSH1 0x4 DUP1 CALLDATASIZE SUB DUP2 ADD SWAP1 PUSH2 0x8A SWAP2 SWAP1 PUSH2 0x7E0 JUMP JUMPDEST PUSH2 0x1B5 JUMP JUMPDEST PUSH1 0x40 MLOAD PUSH2 0x9C SWAP2 SWAP1 PUSH2 0x903 JUMP JUMPDEST PUSH1 0x40 MLOAD DUP1 SWAP2 SUB SWAP1 RETURN JUMPDEST PUSH2 0xBF PUSH1 0x4 DUP1 CALLDATASIZE SUB DUP2 ADD SWAP1 PUSH2 0xBA SWAP2 SWAP1 PUSH2 0x7E0 JUMP JUMPDEST PUSH2 0x32D JUMP JUMPDEST PUSH1 0x40 MLOAD PUSH2 0xD0 SWAP6 SWAP5 SWAP4 SWAP3 SWAP2 SWAP1 PUSH2 0x989 JUMP JUMPDEST PUSH1 0x40 MLOAD DUP1 SWAP2 SUB SWAP1 RETURN JUMPDEST PUSH2 0xF3 PUSH1 0x4 DUP1 CALLDATASIZE SUB DUP2 ADD SWAP1 PUSH2 0xEE SWAP2 SWAP1 PUSH2 0x71F JUMP JUMPDEST PUSH2 0x477 JUMP JUMPDEST STOP JUMPDEST PUSH2 0xFD PUSH2 0x519 JUMP JUMPDEST PUSH1 0x40 MLOAD PUSH2 0x10A SWAP2 SWAP1 PUSH2 0xA27 JUMP JUMPDEST PUSH1 0x40 MLOAD DUP1 SWAP2 SUB SWAP1 RETURN JUMPDEST PUSH1 0x40 MLOAD DUP1 PUSH1 0xA0 ADD PUSH1 0x40 MSTORE DUP1 DUP8 DUP2 MSTORE PUSH1 0x20 ADD DUP6 DUP2 MSTORE PUSH1 0x20 ADD DUP5 DUP2 MSTORE PUSH1 0x20 ADD DUP4 DUP2 MSTORE PUSH1 0x20 ADD DUP3 ISZERO ISZERO DUP2 MSTORE POP PUSH1 0x1 PUSH0 DUP8 DUP2 MSTORE PUSH1 0x20 ADD SWAP1 DUP2 MSTORE PUSH1 0x20 ADD PUSH0 KECCAK256 PUSH0 DUP3 ADD MLOAD DUP2 PUSH0 ADD SWAP1 DUP2 PUSH2 0x160 SWAP2 SWAP1 PUSH2 0xC3A JUMP JUMPDEST POP PUSH1 0x20 DUP3 ADD MLOAD DUP2 PUSH1 0x1 ADD SSTORE PUSH1 0x40 DUP3 ADD MLOAD DUP2 PUSH1 0x2 ADD SWAP1 DUP2 PUSH2 0x180 SWAP2 SWAP1 PUSH2 0xC3A JUMP JUMPDEST POP PUSH1 0x60 DUP3 ADD MLOAD DUP2 PUSH1 0x3 ADD SSTORE PUSH1 0x80 DUP3 ADD MLOAD DUP2 PUSH1 0x4 ADD PUSH0 PUSH2 0x100 EXP DUP2 SLOAD DUP2 PUSH1 0xFF MUL NOT AND SWAP1 DUP4 ISZERO ISZERO MUL OR SWAP1 SSTORE POP SWAP1 POP POP POP POP POP POP POP POP JUMP JUMPDEST PUSH2 0x1BD PUSH2 0x53C JUMP JUMPDEST PUSH1 0x1 PUSH0 DUP4 DUP2 MSTORE PUSH1 0x20 ADD SWAP1 DUP2 MSTORE PUSH1 0x20 ADD PUSH0 KECCAK256 PUSH1 0x40 MLOAD DUP1 PUSH1 0xA0 ADD PUSH1 0x40 MSTORE SWAP1 DUP2 PUSH0 DUP3 ADD DUP1 SLOAD PUSH2 0x1E8 SWAP1 PUSH2 0xA6D JUMP JUMPDEST DUP1 PUSH1 0x1F ADD PUSH1 0x20 DUP1 SWAP2 DIV MUL PUSH1 0x20 ADD PUSH1 0x40 MLOAD SWAP1 DUP2 ADD PUSH1 0x40 MSTORE DUP1 SWAP3 SWAP2 SWAP1 DUP2 DUP2 MSTORE PUSH1 0x20 ADD DUP3 DUP1 SLOAD PUSH2 0x214 SWAP1 PUSH2 0xA6D JUMP JUMPDEST DUP1 ISZERO PUSH2 0x25F JUMPI DUP1 PUSH1 0x1F LT PUSH2 0x236 JUMPI PUSH2 0x100 DUP1 DUP4 SLOAD DIV MUL DUP4 MSTORE SWAP2 PUSH1 0x20 ADD SWAP2 PUSH2 0x25F JUMP JUMPDEST DUP3 ADD SWAP2 SWAP1 PUSH0 MSTORE PUSH1 0x20 PUSH0 KECCAK256 SWAP1 JUMPDEST DUP2 SLOAD DUP2 MSTORE SWAP1 PUSH1 0x1 ADD SWAP1 PUSH1 0x20 ADD DUP1 DUP4 GT PUSH2 0x242 JUMPI DUP3 SWAP1 SUB PUSH1 0x1F AND DUP3 ADD SWAP2 JUMPDEST POP POP POP POP POP DUP2 MSTORE PUSH1 0x20 ADD PUSH1 0x1 DUP3 ADD SLOAD DUP2 MSTORE PUSH1 0x20 ADD PUSH1 0x2 DUP3 ADD DUP1 SLOAD PUSH2 0x282 SWAP1 PUSH2 0xA6D JUMP JUMPDEST DUP1 PUSH1 0x1F ADD PUSH1 0x20 DUP1 SWAP2 DIV MUL PUSH1 0x20 ADD PUSH1 0x40 MLOAD SWAP1 DUP2 ADD PUSH1 0x40 MSTORE DUP1 SWAP3 SWAP2 SWAP1 DUP2 DUP2 MSTORE PUSH1 0x20 ADD DUP3 DUP1 SLOAD PUSH2 0x2AE SWAP1 PUSH2 0xA6D JUMP JUMPDEST DUP1 ISZERO PUSH2 0x2F9 JUMPI DUP1 PUSH1 0x1F LT PUSH2 0x2D0 JUMPI PUSH2 0x100 DUP1 DUP4 SLOAD DIV MUL DUP4 MSTORE SWAP2 PUSH1 0x20 ADD SWAP2 PUSH2 0x2F9 JUMP JUMPDEST DUP3 ADD SWAP2 SWAP1 PUSH0 MSTORE PUSH1 0x20 PUSH0 KECCAK256 SWAP1 JUMPDEST DUP2 SLOAD DUP2 MSTORE SWAP1 PUSH1 0x1 ADD SWAP1 PUSH1 0x20 ADD DUP1 DUP4 GT PUSH2 0x2DC JUMPI DUP3 SWAP1 SUB PUSH1 0x1F AND DUP3 ADD SWAP2 JUMPDEST POP POP POP POP POP DUP2 MSTORE PUSH1 0x20 ADD PUSH1 0x3 DUP3 ADD SLOAD DUP2 MSTORE PUSH1 0x20 ADD PUSH1 0x4 DUP3 ADD PUSH0 SWAP1 SLOAD SWAP1 PUSH2 0x100 EXP SWAP1 DIV PUSH1 0xFF AND ISZERO ISZERO ISZERO ISZERO DUP2 MSTORE POP POP SWAP1 POP SWAP2 SWAP1 POP JUMP JUMPDEST PUSH1 0x1 PUSH1 0x20 MSTORE DUP1 PUSH0 MSTORE PUSH1 0x40 PUSH0 KECCAK256 PUSH0 SWAP2 POP SWAP1 POP DUP1 PUSH0 ADD DUP1 SLOAD PUSH2 0x34C SWAP1 PUSH2 0xA6D JUMP JUMPDEST DUP1 PUSH1 0x1F ADD PUSH1 0x20 DUP1 SWAP2 DIV MUL PUSH1 0x20 ADD PUSH1 0x40 MLOAD SWAP1 DUP2 ADD PUSH1 0x40 MSTORE DUP1 SWAP3 SWAP2 SWAP1 DUP2 DUP2 MSTORE PUSH1 0x20 ADD DUP3 DUP1 SLOAD PUSH2 0x378 SWAP1 PUSH2 0xA6D JUMP JUMPDEST DUP1 ISZERO PUSH2 0x3C3 JUMPI DUP1 PUSH1 0x1F LT PUSH2 0x39A JUMPI PUSH2 0x100 DUP1 DUP4 SLOAD DIV MUL DUP4 MSTORE SWAP2 PUSH1 0x20 ADD SWAP2 PUSH2 0x3C3 JUMP JUMPDEST DUP3 ADD SWAP2 SWAP1 PUSH0 MSTORE PUSH1 0x20 PUSH0 KECCAK256 SWAP1 JUMPDEST DUP2 SLOAD DUP2 MSTORE SWAP1 PUSH1 0x1 ADD SWAP1 PUSH1 0x20 ADD DUP1 DUP4 GT PUSH2 0x3A6 JUMPI DUP3 SWAP1 SUB PUSH1 0x1F AND DUP3 ADD SWAP2 JUMPDEST POP POP POP POP POP SWAP1 DUP1 PUSH1 0x1 ADD SLOAD SWAP1 DUP1 PUSH1 0x2 ADD DUP1 SLOAD PUSH2 0x3DE SWAP1 PUSH2 0xA6D JUMP JUMPDEST DUP1 PUSH1 0x1F ADD PUSH1 0x20 DUP1 SWAP2 DIV MUL PUSH1 0x20 ADD PUSH1 0x40 MLOAD SWAP1 DUP2 ADD PUSH1 0x40 MSTORE DUP1 SWAP3 SWAP2 SWAP1 DUP2 DUP2 MSTORE PUSH1 0x20 ADD DUP3 DUP1 SLOAD PUSH2 0x40A SWAP1 PUSH2 0xA6D JUMP JUMPDEST DUP1 ISZERO PUSH2 0x455 JUMPI DUP1 PUSH1 0x1F LT PUSH2 0x42C JUMPI PUSH2 0x100 DUP1 DUP4 SLOAD DIV MUL DUP4 MSTORE SWAP2 PUSH1 0x20 ADD SWAP2 PUSH2 0x455 JUMP JUMPDEST DUP3 ADD SWAP2 SWAP1 PUSH0 MSTORE PUSH1 0x20 PUSH0 KECCAK256 SWAP1 JUMPDEST DUP2 SLOAD DUP2 MSTORE SWAP1 PUSH1 0x1 ADD SWAP1 PUSH1 0x20 ADD DUP1 DUP4 GT PUSH2 0x438 JUMPI DUP3 SWAP1 SUB PUSH1 0x1F AND DUP3 ADD SWAP2 JUMPDEST POP POP POP POP POP SWAP1 DUP1 PUSH1 0x3 ADD SLOAD SWAP1 DUP1 PUSH1 0x4 ADD PUSH0 SWAP1 SLOAD SWAP1 PUSH2 0x100 EXP SWAP1 DIV PUSH1 0xFF AND SWAP1 POP DUP6 JUMP JUMPDEST PUSH1 0x40 MLOAD DUP1 PUSH1 0xA0 ADD PUSH1 0x40 MSTORE DUP1 DUP8 DUP2 MSTORE PUSH1 0x20 ADD DUP6 DUP2 MSTORE PUSH1 0x20 ADD DUP5 DUP2 MSTORE PUSH1 0x20 ADD DUP4 DUP2 MSTORE PUSH1 0x20 ADD DUP3 ISZERO ISZERO DUP2 MSTORE POP PUSH1 0x1 PUSH0 DUP8 DUP2 MSTORE PUSH1 0x20 ADD SWAP1 DUP2 MSTORE PUSH1 0x20 ADD PUSH0 KECCAK256 PUSH0 DUP3 ADD MLOAD DUP2 PUSH0 ADD SWAP1 DUP2 PUSH2 0x4C4 SWAP2 SWAP1 PUSH2 0xC3A JUMP JUMPDEST POP PUSH1 0x20 DUP3 ADD MLOAD DUP2 PUSH1 0x1 ADD SSTORE PUSH1 0x40 DUP3 ADD MLOAD DUP2 PUSH1 0x2 ADD SWAP1 DUP2 PUSH2 0x4E4 SWAP2 SWAP1 PUSH2 0xC3A JUMP JUMPDEST POP PUSH1 0x60 DUP3 ADD MLOAD DUP2 PUSH1 0x3 ADD SSTORE PUSH1 0x80 DUP3 ADD MLOAD DUP2 PUSH1 0x4 ADD PUSH0 PUSH2 0x100 EXP DUP2 SLOAD DUP2 PUSH1 0xFF MUL NOT AND SWAP1 DUP4 ISZERO ISZERO MUL OR SWAP1 SSTORE POP SWAP1 POP POP POP POP POP POP POP POP JUMP JUMPDEST PUSH0 DUP1 SLOAD SWAP1 PUSH2 0x100 EXP SWAP1 DIV PUSH20 0xFFFFFFFFFFFFFFFFFFFFFFFFFFFFFFFFFFFFFFFF AND DUP2 JUMP JUMPDEST PUSH1 0x40 MLOAD DUP1 PUSH1 0xA0 ADD PUSH1 0x40 MSTORE DUP1 PUSH1 0x60 DUP2 MSTORE PUSH1 0x20 ADD PUSH0 DUP2 MSTORE PUSH1 0x20 ADD PUSH1 0x60 DUP2 MSTORE PUSH1 0x20 ADD PUSH0 DUP2 MSTORE PUSH1 0x20 ADD PUSH0 ISZERO ISZERO DUP2 MSTORE POP SWAP1 JUMP JUMPDEST PUSH0 PUSH1 0x40 MLOAD SWAP1 POP SWAP1 JUMP JUMPDEST PUSH0 DUP1 REVERT JUMPDEST PUSH0 DUP1 REVERT JUMPDEST PUSH0 DUP1 REVERT JUMPDEST PUSH0 DUP1 REVERT JUMPDEST PUSH0 PUSH1 0x1F NOT PUSH1 0x1F DUP4 ADD AND SWAP1 POP SWAP2 SWAP1 POP JUMP JUMPDEST PUSH32 0x4E487B7100000000000000000000000000000000000000000000000000000000 PUSH0 MSTORE PUSH1 0x41 PUSH1 0x4 MSTORE PUSH1 0x24 PUSH0 REVERT JUMPDEST PUSH2 0x5C9 DUP3 PUSH2 0x583 JUMP JUMPDEST DUP2 ADD DUP2 DUP2 LT PUSH8 0xFFFFFFFFFFFFFFFF DUP3 GT OR ISZERO PUSH2 0x5E8 JUMPI PUSH2 0x5E7 PUSH2 0x593 JUMP JUMPDEST JUMPDEST DUP1 PUSH1 0x40 MSTORE POP POP POP JUMP JUMPDEST PUSH0 PUSH2 0x5FA PUSH2 0x56A JUMP JUMPDEST SWAP1 POP PUSH2 0x606 DUP3 DUP3 PUSH2 0x5C0 JUMP JUMPDEST SWAP2 SWAP1 POP JUMP JUMPDEST PUSH0 PUSH8 0xFFFFFFFFFFFFFFFF DUP3 GT ISZERO PUSH2 0x625 JUMPI PUSH2 0x624 PUSH2 0x593 JUMP JUMPDEST JUMPDEST PUSH2 0x62E DUP3 PUSH2 0x583 JUMP JUMPDEST SWAP1 POP PUSH1 0x20 DUP2 ADD SWAP1 POP SWAP2 SWAP1 POP JUMP JUMPDEST DUP3 DUP2 DUP4 CALLDATACOPY PUSH0 DUP4 DUP4 ADD MSTORE POP POP POP JUMP JUMPDEST PUSH0 PUSH2 0x65B PUSH2 0x656 DUP5 PUSH2 0x60B JUMP JUMPDEST PUSH2 0x5F1 JUMP JUMPDEST SWAP1 POP DUP3 DUP2 MSTORE PUSH1 0x20 DUP2 ADD DUP5 DUP5 DUP5 ADD GT ISZERO PUSH2 0x677 JUMPI PUSH2 0x676 PUSH2 0x57F JUMP JUMPDEST JUMPDEST PUSH2 0x682 DUP5 DUP3 DUP6 PUSH2 0x63B JUMP JUMPDEST POP SWAP4 SWAP3 POP POP POP JUMP JUMPDEST PUSH0 DUP3 PUSH1 0x1F DUP4 ADD SLT PUSH2 0x69E JUMPI PUSH2 0x69D PUSH2 0x57B JUMP JUMPDEST JUMPDEST DUP2 CALLDATALOAD PUSH2 0x6AE DUP5 DUP3 PUSH1 0x20 DUP7 ADD PUSH2 0x649 JUMP JUMPDEST SWAP2 POP POP SWAP3 SWAP2 POP POP JUMP JUMPDEST PUSH0 DUP2 SWAP1 POP SWAP2 SWAP1 POP JUMP JUMPDEST PUSH2 0x6C9 DUP2 PUSH2 0x6B7 JUMP JUMPDEST DUP2 EQ PUSH2 0x6D3 JUMPI PUSH0 DUP1 REVERT JUMPDEST POP JUMP JUMPDEST PUSH0 DUP2 CALLDATALOAD SWAP1 POP PUSH2 0x6E4 DUP2 PUSH2 0x6C0 JUMP JUMPDEST SWAP3 SWAP2 POP POP JUMP JUMPDEST PUSH0 DUP2 ISZERO ISZERO SWAP1 POP SWAP2 SWAP1 POP JUMP JUMPDEST PUSH2 0x6FE DUP2 PUSH2 0x6EA JUMP JUMPDEST DUP2 EQ PUSH2 0x708 JUMPI PUSH0 DUP1 REVERT JUMPDEST POP JUMP JUMPDEST PUSH0 DUP2 CALLDATALOAD SWAP1 POP PUSH2 0x719 DUP2 PUSH2 0x6F5 JUMP JUMPDEST SWAP3 SWAP2 POP POP JUMP JUMPDEST PUSH0 DUP1 PUSH0 DUP1 PUSH0 DUP1 PUSH1 0xC0 DUP8 DUP10 SUB SLT ISZERO PUSH2 0x739 JUMPI PUSH2 0x738 PUSH2 0x573 JUMP JUMPDEST JUMPDEST PUSH0 DUP8 ADD CALLDATALOAD PUSH8 0xFFFFFFFFFFFFFFFF DUP2 GT ISZERO PUSH2 0x756 JUMPI PUSH2 0x755 PUSH2 0x577 JUMP JUMPDEST JUMPDEST PUSH2 0x762 DUP10 DUP3 DUP11 ADD PUSH2 0x68A JUMP JUMPDEST SWAP7 POP POP PUSH1 0x20 PUSH2 0x773 DUP10 DUP3 DUP11 ADD PUSH2 0x6D6 JUMP JUMPDEST SWAP6 POP POP PUSH1 0x40 PUSH2 0x784 DUP10 DUP3 DUP11 ADD PUSH2 0x6D6 JUMP JUMPDEST SWAP5 POP POP PUSH1 0x60 DUP8 ADD CALLDATALOAD PUSH8 0xFFFFFFFFFFFFFFFF DUP2 GT ISZERO PUSH2 0x7A5 JUMPI PUSH2 0x7A4 PUSH2 0x577 JUMP JUMPDEST JUMPDEST PUSH2 0x7B1 DUP10 DUP3 DUP11 ADD PUSH2 0x68A JUMP JUMPDEST SWAP4 POP POP PUSH1 0x80 PUSH2 0x7C2 DUP10 DUP3 DUP11 ADD PUSH2 0x6D6 JUMP JUMPDEST SWAP3 POP POP PUSH1 0xA0 PUSH2 0x7D3 DUP10 DUP3 DUP11 ADD PUSH2 0x70B JUMP JUMPDEST SWAP2 POP POP SWAP3 SWAP6 POP SWAP3 SWAP6 POP SWAP3 SWAP6 JUMP JUMPDEST PUSH0 PUSH1 0x20 DUP3 DUP5 SUB SLT ISZERO PUSH2 0x7F5 JUMPI PUSH2 0x7F4 PUSH2 0x573 JUMP JUMPDEST JUMPDEST PUSH0 PUSH2 0x802 DUP5 DUP3 DUP6 ADD PUSH2 0x6D6 JUMP JUMPDEST SWAP2 POP POP SWAP3 SWAP2 POP POP JUMP JUMPDEST PUSH0 DUP2 MLOAD SWAP1 POP SWAP2 SWAP1 POP JUMP JUMPDEST PUSH0 DUP3 DUP3 MSTORE PUSH1 0x20 DUP3 ADD SWAP1 POP SWAP3 SWAP2 POP POP JUMP JUMPDEST DUP3 DUP2 DUP4 MCOPY PUSH0 DUP4 DUP4 ADD MSTORE POP POP POP JUMP JUMPDEST PUSH0 PUSH2 0x83D DUP3 PUSH2 0x80B JUMP JUMPDEST PUSH2 0x847 DUP2 DUP6 PUSH2 0x815 JUMP JUMPDEST SWAP4 POP PUSH2 0x857 DUP2 DUP6 PUSH1 0x20 DUP7 ADD PUSH2 0x825 JUMP JUMPDEST PUSH2 0x860 DUP2 PUSH2 0x583 JUMP JUMPDEST DUP5 ADD SWAP2 POP POP SWAP3 SWAP2 POP POP JUMP JUMPDEST PUSH2 0x874 DUP2 PUSH2 0x6B7 JUMP JUMPDEST DUP3 MSTORE POP POP JUMP JUMPDEST PUSH2 0x883 DUP2 PUSH2 0x6EA JUMP JUMPDEST DUP3 MSTORE POP POP JUMP JUMPDEST PUSH0 PUSH1 0xA0 DUP4 ADD PUSH0 DUP4 ADD MLOAD DUP5 DUP3 SUB PUSH0 DUP7 ADD MSTORE PUSH2 0x8A3 DUP3 DUP3 PUSH2 0x833 JUMP JUMPDEST SWAP2 POP POP PUSH1 0x20 DUP4 ADD MLOAD PUSH2 0x8B8 PUSH1 0x20 DUP7 ADD DUP3 PUSH2 0x86B JUMP JUMPDEST POP PUSH1 0x40 DUP4 ADD MLOAD DUP5 DUP3 SUB PUSH1 0x40 DUP7 ADD MSTORE PUSH2 0x8D0 DUP3 DUP3 PUSH2 0x833 JUMP JUMPDEST SWAP2 POP POP PUSH1 0x60 DUP4 ADD MLOAD PUSH2 0x8E5 PUSH1 0x60 DUP7 ADD DUP3 PUSH2 0x86B JUMP JUMPDEST POP PUSH1 0x80 DUP4 ADD MLOAD PUSH2 0x8F8 PUSH1 0x80 DUP7 ADD DUP3 PUSH2 0x87A JUMP JUMPDEST POP DUP1 SWAP2 POP POP SWAP3 SWAP2 POP POP JUMP JUMPDEST PUSH0 PUSH1 0x20 DUP3 ADD SWAP1 POP DUP2 DUP2 SUB PUSH0 DUP4 ADD MSTORE PUSH2 0x91B DUP2 DUP5 PUSH2 0x889 JUMP JUMPDEST SWAP1 POP SWAP3 SWAP2 POP POP JUMP JUMPDEST PUSH0 DUP3 DUP3 MSTORE PUSH1 0x20 DUP3 ADD SWAP1 POP SWAP3 SWAP2 POP POP JUMP JUMPDEST PUSH0 PUSH2 0x93D DUP3 PUSH2 0x80B JUMP JUMPDEST PUSH2 0x947 DUP2 DUP6 PUSH2 0x923 JUMP JUMPDEST SWAP4 POP PUSH2 0x957 DUP2 DUP6 PUSH1 0x20 DUP7 ADD PUSH2 0x825 JUMP JUMPDEST PUSH2 0x960 DUP2 PUSH2 0x583 JUMP JUMPDEST DUP5 ADD SWAP2 POP POP SWAP3 SWAP2 POP POP JUMP JUMPDEST PUSH2 0x974 DUP2 PUSH2 0x6B7 JUMP JUMPDEST DUP3 MSTORE POP POP JUMP JUMPDEST PUSH2 0x983 DUP2 PUSH2 0x6EA JUMP JUMPDEST DUP3 MSTORE POP POP JUMP JUMPDEST PUSH0 PUSH1 0xA0 DUP3 ADD SWAP1 POP DUP2 DUP2 SUB PUSH0 DUP4 ADD MSTORE PUSH2 0x9A1 DUP2 DUP9 PUSH2 0x933 JUMP JUMPDEST SWAP1 POP PUSH2 0x9B0 PUSH1 0x20 DUP4 ADD DUP8 PUSH2 0x96B JUMP JUMPDEST DUP2 DUP2 SUB PUSH1 0x40 DUP4 ADD MSTORE PUSH2 0x9C2 DUP2 DUP7 PUSH2 0x933 JUMP JUMPDEST SWAP1 POP PUSH2 0x9D1 PUSH1 0x60 DUP4 ADD DUP6 PUSH2 0x96B JUMP JUMPDEST PUSH2 0x9DE PUSH1 0x80 DUP4 ADD DUP5 PUSH2 0x97A JUMP JUMPDEST SWAP7 SWAP6 POP POP POP POP POP POP JUMP JUMPDEST PUSH0 PUSH20 0xFFFFFFFFFFFFFFFFFFFFFFFFFFFFFFFFFFFFFFFF DUP3 AND SWAP1 POP SWAP2 SWAP1 POP JUMP JUMPDEST PUSH0 PUSH2 0xA11 DUP3 PUSH2 0x9E8 JUMP JUMPDEST SWAP1 POP SWAP2 SWAP1 POP JUMP JUMPDEST PUSH2 0xA21 DUP2 PUSH2 0xA07 JUMP JUMPDEST DUP3 MSTORE POP POP JUMP JUMPDEST PUSH0 PUSH1 0x20 DUP3 ADD SWAP1 POP PUSH2 0xA3A PUSH0 DUP4 ADD DUP5 PUSH2 0xA18 JUMP JUMPDEST SWAP3 SWAP2 POP POP JUMP JUMPDEST PUSH32 0x4E487B7100000000000000000000000000000000000000000000000000000000 PUSH0 MSTORE PUSH1 0x22 PUSH1 0x4 MSTORE PUSH1 0x24 PUSH0 REVERT JUMPDEST PUSH0 PUSH1 0x2 DUP3 DIV SWAP1 POP PUSH1 0x1 DUP3 AND DUP1 PUSH2 0xA84 JUMPI PUSH1 0x7F DUP3 AND SWAP2 POP JUMPDEST PUSH1 0x20 DUP3 LT DUP2 SUB PUSH2 0xA97 JUMPI PUSH2 0xA96 PUSH2 0xA40 JUMP JUMPDEST JUMPDEST POP SWAP2 SWAP1 POP JUMP JUMPDEST PUSH0 DUP2 SWAP1 POP DUP2 PUSH0 MSTORE PUSH1 0x20 PUSH0 KECCAK256 SWAP1 POP SWAP2 SWAP1 POP JUMP JUMPDEST PUSH0 PUSH1 0x20 PUSH1 0x1F DUP4 ADD DIV SWAP1 POP SWAP2 SWAP1 POP JUMP JUMPDEST PUSH0 DUP3 DUP3 SHL SWAP1 POP SWAP3 SWAP2 POP POP JUMP JUMPDEST PUSH0 PUSH1 0x8 DUP4 MUL PUSH2 0xAF9 PUSH32 0xFFFFFFFFFFFFFFFFFFFFFFFFFFFFFFFFFFFFFFFFFFFFFFFFFFFFFFFFFFFFFFFF DUP3 PUSH2 0xABE JUMP JUMPDEST PUSH2 0xB03 DUP7 DUP4 PUSH2 0xABE JUMP JUMPDEST SWAP6 POP DUP1 NOT DUP5 AND SWAP4 POP DUP1 DUP7 AND DUP5 OR SWAP3 POP POP POP SWAP4 SWAP3 POP POP POP JUMP JUMPDEST PUSH0 DUP2 SWAP1 POP SWAP2 SWAP1 POP JUMP JUMPDEST PUSH0 PUSH2 0xB3E PUSH2 0xB39 PUSH2 0xB34 DUP5 PUSH2 0x6B7 JUMP JUMPDEST PUSH2 0xB1B JUMP JUMPDEST PUSH2 0x6B7 JUMP JUMPDEST SWAP1 POP SWAP2 SWAP1 POP JUMP JUMPDEST PUSH0 DUP2 SWAP1 POP SWAP2 SWAP1 POP JUMP JUMPDEST PUSH2 0xB57 DUP4 PUSH2 0xB24 JUMP JUMPDEST PUSH2 0xB6B PUSH2 0xB63 DUP3 PUSH2 0xB45 JUMP JUMPDEST DUP5 DUP5 SLOAD PUSH2 0xACA JUMP JUMPDEST DUP3 SSTORE POP POP POP POP JUMP JUMPDEST PUSH0 SWAP1 JUMP JUMPDEST PUSH2 0xB7F PUSH2 0xB73 JUMP JUMPDEST PUSH2 0xB8A DUP2 DUP5 DUP5 PUSH2 0xB4E JUMP JUMPDEST POP POP POP JUMP JUMPDEST JUMPDEST DUP2 DUP2 LT ISZERO PUSH2 0xBAD JUMPI PUSH2 0xBA2 PUSH0 DUP3 PUSH2 0xB77 JUMP JUMPDEST PUSH1 0x1 DUP2 ADD SWAP1 POP PUSH2 0xB90 JUMP JUMPDEST POP POP JUMP JUMPDEST PUSH1 0x1F DUP3 GT ISZERO PUSH2 0xBF2 JUMPI PUSH2 0xBC3 DUP2 PUSH2 0xA9D JUMP JUMPDEST PUSH2 0xBCC DUP5 PUSH2 0xAAF JUMP JUMPDEST DUP2 ADD PUSH1 0x20 DUP6 LT ISZERO PUSH2 0xBDB JUMPI DUP2 SWAP1 POP JUMPDEST PUSH2 0xBEF PUSH2 0xBE7 DUP6 PUSH2 0xAAF JUMP JUMPDEST DUP4 ADD DUP3 PUSH2 0xB8F JUMP JUMPDEST POP POP JUMPDEST POP POP POP JUMP JUMPDEST PUSH0 DUP3 DUP3 SHR SWAP1 POP SWAP3 SWAP2 POP POP JUMP JUMPDEST PUSH0 PUSH2 0xC12 PUSH0 NOT DUP5 PUSH1 0x8 MUL PUSH2 0xBF7 JUMP JUMPDEST NOT DUP1 DUP4 AND SWAP2 POP POP SWAP3 SWAP2 POP POP JUMP JUMPDEST PUSH0 PUSH2 0xC2A DUP4 DUP4 PUSH2 0xC03 JUMP JUMPDEST SWAP2 POP DUP3 PUSH1 0x2 MUL DUP3 OR SWAP1 POP SWAP3 SWAP2 POP POP JUMP JUMPDEST PUSH2 0xC43 DUP3 PUSH2 0x80B JUMP JUMPDEST PUSH8 0xFFFFFFFFFFFFFFFF DUP2 GT ISZERO PUSH2 0xC5C JUMPI PUSH2 0xC5B PUSH2 0x593 JUMP JUMPDEST JUMPDEST PUSH2 0xC66 DUP3 SLOAD PUSH2 0xA6D JUMP JUMPDEST PUSH2 0xC71 DUP3 DUP3 DUP6 PUSH2 0xBB1 JUMP JUMPDEST PUSH0 PUSH1 0x20 SWAP1 POP PUSH1 0x1F DUP4 GT PUSH1 0x1 DUP2 EQ PUSH2 0xCA2 JUMPI PUSH0 DUP5 ISZERO PUSH2 0xC90 JUMPI DUP3 DUP8 ADD MLOAD SWAP1 POP JUMPDEST PUSH2 0xC9A DUP6 DUP3 PUSH2 0xC1F JUMP JUMPDEST DUP7 SSTORE POP PUSH2 0xD01 JUMP JUMPDEST PUSH1 0x1F NOT DUP5 AND PUSH2 0xCB0 DUP7 PUSH2 0xA9D JUMP JUMPDEST PUSH0 JUMPDEST DUP3 DUP2 LT ISZERO PUSH2 0xCD7 JUMPI DUP5 DUP10 ADD MLOAD DUP3 SSTORE PUSH1 0x1 DUP3 ADD SWAP2 POP PUSH1 0x20 DUP6 ADD SWAP5 POP PUSH1 0x20 DUP2 ADD SWAP1 POP PUSH2 0xCB2 JUMP JUMPDEST DUP7 DUP4 LT ISZERO PUSH2 0xCF4 JUMPI DUP5 DUP10 ADD MLOAD PUSH2 0xCF0 PUSH1 0x1F DUP10 AND DUP3 PUSH2 0xC03 JUMP JUMPDEST DUP4 SSTORE POP JUMPDEST PUSH1 0x1 PUSH1 0x2 DUP9 MUL ADD DUP9 SSTORE POP POP POP JUMPDEST POP POP POP POP POP POP JUMP INVALID LOG2 PUSH5 0x6970667358 0x22 SLT KECCAK256 MULMOD PREVRANDAO STOP NOT MSTORE8 0xE5 PUSH22 0x1524A5A25641052941B39CFFBB7D3FE81193E97522A0 0xB3 0x2C SIGNEXTEND PUSH5 0x736F6C6343 STOP ADDMOD BYTE STOP CALLER "
		},
		"gasEstimates": {
			"creation": {
				"codeDepositCost": "678200",
				"executionCost": "706",
				"totalCost": "678906"
			},
			"external": {
				"addUser(string,uint256,uint256,string,uint256,bool)": "infinite",
				"getAllStudent(uint256)": "infinite",
				"owner()": "2571",
				"updateUser(string,uint256,uint256,string,uint256,bool)": "infinite",
				"users(uint256)": "infinite"
			}
		},
		"methodIdentifiers": {
			"addUser(string,uint256,uint256,string,uint256,bool)": "12eb77db",
			"getAllStudent(uint256)": "1aae0ed7",
			"owner()": "8da5cb5b",
			"updateUser(string,uint256,uint256,string,uint256,bool)": "598757e9",
			"users(uint256)": "365b98b2"
		}
	},
	"abi": [
		{
			"inputs": [
				{
					"internalType": "string",
					"name": "_name",
					"type": "string"
				},
				{
					"internalType": "uint256",
					"name": "_id",
					"type": "uint256"
				},
				{
					"internalType": "uint256",
					"name": "_age",
					"type": "uint256"
				},
				{
					"internalType": "string",
					"name": "_class",
					"type": "string"
				},
				{
					"internalType": "uint256",
					"name": "_studentId",
					"type": "uint256"
				},
				{
					"internalType": "bool",
					"name": "_isRegistered",
					"type": "bool"
				}
			],
			"name": "addUser",
			"outputs": [],
			"stateMutability": "nonpayable",
			"type": "function"
		},
		{
			"inputs": [
				{
					"internalType": "uint256",
					"name": "_id",
					"type": "uint256"
				}
			],
			"name": "getAllStudent",
			"outputs": [
				{
					"components": [
						{
							"internalType": "string",
							"name": "name",
							"type": "string"
						},
						{
							"internalType": "uint256",
							"name": "age",
							"type": "uint256"
						},
						{
							"internalType": "string",
							"name": "class",
							"type": "string"
						},
						{
							"internalType": "uint256",
							"name": "studentId",
							"type": "uint256"
						},
						{
							"internalType": "bool",
							"name": "isRegistered",
							"type": "bool"
						}
					],
					"internalType": "struct UserRegistry.UserInfo",
					"name": "",
					"type": "tuple"
				}
			],
			"stateMutability": "view",
			"type": "function"
		},
		{
			"inputs": [],
			"name": "owner",
			"outputs": [
				{
					"internalType": "address",
					"name": "",
					"type": "address"
				}
			],
			"stateMutability": "view",
			"type": "function"
		},
		{
			"inputs": [
				{
					"internalType": "string",
					"name": "_name",
					"type": "string"
				},
				{
					"internalType": "uint256",
					"name": "_id",
					"type": "uint256"
				},
				{
					"internalType": "uint256",
					"name": "_age",
					"type": "uint256"
				},
				{
					"internalType": "string",
					"name": "_class",
					"type": "string"
				},
				{
					"internalType": "uint256",
					"name": "_studentId",
					"type": "uint256"
				},
				{
					"internalType": "bool",
					"name": "_isRegistered",
					"type": "bool"
				}
			],
			"name": "updateUser",
			"outputs": [],
			"stateMutability": "nonpayable",
			"type": "function"
		},
		{
			"inputs": [
				{
					"internalType": "uint256",
					"name": "",
					"type": "uint256"
				}
			],
			"name": "users",
			"outputs": [
				{
					"internalType": "string",
					"name": "name",
					"type": "string"
				},
				{
					"internalType": "uint256",
					"name": "age",
					"type": "uint256"
				},
				{
					"internalType": "string",
					"name": "class",
					"type": "string"
				},
				{
					"internalType": "uint256",
					"name": "studentId",
					"type": "uint256"
				},
				{
					"internalType": "bool",
					"name": "isRegistered",
					"type": "bool"
				}
			],
			"stateMutability": "view",
			"type": "function"
		}
	]
}